{
  "_format": "hh-sol-artifact-1",
  "contractName": "NFTMarket",
  "sourceName": "contracts/NFTMarket.sol",
  "abi": [
    {
      "inputs": [],
      "stateMutability": "nonpayable",
      "type": "constructor"
    },
    {
      "anonymous": false,
      "inputs": [
        {
          "indexed": true,
          "internalType": "uint256",
          "name": "itemId",
          "type": "uint256"
        },
        {
          "indexed": true,
          "internalType": "address",
          "name": "nftContract",
          "type": "address"
        },
        {
          "indexed": true,
          "internalType": "uint256",
          "name": "tokenId",
          "type": "uint256"
        },
        {
          "indexed": false,
          "internalType": "address",
          "name": "seller",
          "type": "address"
        },
        {
          "indexed": false,
          "internalType": "address",
          "name": "owner",
          "type": "address"
        },
        {
          "indexed": false,
          "internalType": "uint256",
          "name": "price",
          "type": "uint256"
        },
        {
          "indexed": false,
          "internalType": "bool",
          "name": "sold",
          "type": "bool"
        }
      ],
      "name": "MarketItemCreated",
      "type": "event"
    },
    {
      "inputs": [
        {
          "internalType": "address",
          "name": "nftContract",
          "type": "address"
        },
        {
          "internalType": "uint256",
          "name": "tokenId",
          "type": "uint256"
        },
        {
          "internalType": "uint256",
          "name": "price",
          "type": "uint256"
        }
      ],
      "name": "createMarketItem",
      "outputs": [],
      "stateMutability": "payable",
      "type": "function"
    },
    {
      "inputs": [
        {
          "internalType": "address",
          "name": "nftContract",
          "type": "address"
        },
        {
          "internalType": "uint256",
          "name": "itemId",
          "type": "uint256"
        }
      ],
      "name": "createMarketSale",
      "outputs": [],
      "stateMutability": "payable",
      "type": "function"
    },
    {
      "inputs": [],
      "name": "fetchItemsCreated",
      "outputs": [
        {
          "components": [
            {
              "internalType": "uint256",
              "name": "itemId",
              "type": "uint256"
            },
            {
              "internalType": "address",
              "name": "nftContract",
              "type": "address"
            },
            {
              "internalType": "uint256",
              "name": "tokenId",
              "type": "uint256"
            },
            {
              "internalType": "address payable",
              "name": "seller",
              "type": "address"
            },
            {
              "internalType": "address payable",
              "name": "owner",
              "type": "address"
            },
            {
              "internalType": "uint256",
              "name": "price",
              "type": "uint256"
            },
            {
              "internalType": "bool",
              "name": "sold",
              "type": "bool"
            }
          ],
          "internalType": "struct NFTMarket.MarketItem[]",
          "name": "",
          "type": "tuple[]"
        }
      ],
      "stateMutability": "view",
      "type": "function"
    },
    {
      "inputs": [],
      "name": "fetchMarketItems",
      "outputs": [
        {
          "components": [
            {
              "internalType": "uint256",
              "name": "itemId",
              "type": "uint256"
            },
            {
              "internalType": "address",
              "name": "nftContract",
              "type": "address"
            },
            {
              "internalType": "uint256",
              "name": "tokenId",
              "type": "uint256"
            },
            {
              "internalType": "address payable",
              "name": "seller",
              "type": "address"
            },
            {
              "internalType": "address payable",
              "name": "owner",
              "type": "address"
            },
            {
              "internalType": "uint256",
              "name": "price",
              "type": "uint256"
            },
            {
              "internalType": "bool",
              "name": "sold",
              "type": "bool"
            }
          ],
          "internalType": "struct NFTMarket.MarketItem[]",
          "name": "",
          "type": "tuple[]"
        }
      ],
      "stateMutability": "view",
      "type": "function"
    },
    {
      "inputs": [],
      "name": "fetchMyNFTs",
      "outputs": [
        {
          "components": [
            {
              "internalType": "uint256",
              "name": "itemId",
              "type": "uint256"
            },
            {
              "internalType": "address",
              "name": "nftContract",
              "type": "address"
            },
            {
              "internalType": "uint256",
              "name": "tokenId",
              "type": "uint256"
            },
            {
              "internalType": "address payable",
              "name": "seller",
              "type": "address"
            },
            {
              "internalType": "address payable",
              "name": "owner",
              "type": "address"
            },
            {
              "internalType": "uint256",
              "name": "price",
              "type": "uint256"
            },
            {
              "internalType": "bool",
              "name": "sold",
              "type": "bool"
            }
          ],
          "internalType": "struct NFTMarket.MarketItem[]",
          "name": "",
          "type": "tuple[]"
        }
      ],
      "stateMutability": "view",
      "type": "function"
    },
    {
      "inputs": [],
      "name": "getListingPrice",
      "outputs": [
        {
          "internalType": "uint256",
          "name": "",
          "type": "uint256"
        }
      ],
      "stateMutability": "view",
      "type": "function"
    },
    {
      "inputs": [
        {
          "internalType": "address",
          "name": "operator",
          "type": "address"
        },
        {
          "internalType": "address",
          "name": "from",
          "type": "address"
        },
        {
          "internalType": "uint256",
          "name": "tokenId",
          "type": "uint256"
        },
        {
          "internalType": "bytes",
          "name": "data",
          "type": "bytes"
        }
      ],
      "name": "onERC721Received",
      "outputs": [
        {
          "internalType": "bytes4",
          "name": "",
          "type": "bytes4"
        }
      ],
      "stateMutability": "nonpayable",
      "type": "function"
    }
  ],
  "bytecode": "0x60806040526658d15e1762800060045534801561001b57600080fd5b50600160008190555033600360006101000a81548173ffffffffffffffffffffffffffffffffffffffff021916908373ffffffffffffffffffffffffffffffffffffffff160217905550611f3e806100746000396000f3fe6080604052600436106100705760003560e01c8063202e37401161004e578063202e37401461010857806358eb2df514610133578063c23b139e1461014f578063f064c32e1461016b57610070565b80630f08efe01461007557806312e85585146100a0578063150b7a02146100cb575b600080fd5b34801561008157600080fd5b5061008a610196565b6040516100979190611963565b60405180910390f35b3480156100ac57600080fd5b506100b56104c2565b6040516100c29190611a60565b60405180910390f35b3480156100d757600080fd5b506100f260048036038101906100ed919061150e565b6104cc565b6040516100ff9190611985565b60405180910390f35b34801561011457600080fd5b5061011d61057e565b60405161012a9190611963565b60405180910390f35b61014d600480360381019061014891906115c5565b61092e565b005b61016960048036038101906101649190611589565b610cc9565b005b34801561017757600080fd5b50610180611027565b60405161018d9190611963565b60405180910390f35b606060006101a460016113d7565b905060006101b260026113d7565b6101bc60016113d7565b6101c69190611b8d565b90506000808267ffffffffffffffff81111561020b577f4e487b7100000000000000000000000000000000000000000000000000000000600052604160045260246000fd5b60405190808252806020026020018201604052801561024457816020015b6102316113fb565b8152602001906001900390816102295790505b50905060005b848110156104b757600073ffffffffffffffffffffffffffffffffffffffff166005600060018461027b9190611b37565b815260200190815260200160002060040160009054906101000a900473ffffffffffffffffffffffffffffffffffffffff1673ffffffffffffffffffffffffffffffffffffffff1614156104a4576000600560006001846102dc9190611b37565b81526020019081526020016000206000015490506000600560008381526020019081526020016000206040518060e0016040529081600082015481526020016001820160009054906101000a900473ffffffffffffffffffffffffffffffffffffffff1673ffffffffffffffffffffffffffffffffffffffff1673ffffffffffffffffffffffffffffffffffffffff168152602001600282015481526020016003820160009054906101000a900473ffffffffffffffffffffffffffffffffffffffff1673ffffffffffffffffffffffffffffffffffffffff1673ffffffffffffffffffffffffffffffffffffffff1681526020016004820160009054906101000a900473ffffffffffffffffffffffffffffffffffffffff1673ffffffffffffffffffffffffffffffffffffffff1673ffffffffffffffffffffffffffffffffffffffff168152602001600582015481526020016006820160009054906101000a900460ff161515151581525050905080848681518110610487577f4e487b7100000000000000000000000000000000000000000000000000000000600052603260045260246000fd5b602002602001018190525060018561049f9190611b37565b945050505b80806104af90611cba565b91505061024a565b508094505050505090565b6000600454905090565b60006040518060400160405280600781526020017f737563636573730000000000000000000000000000000000000000000000000081525080519060200120828051906020012014610553576040517f08c379a000000000000000000000000000000000000000000000000000000000815260040161054a90611a40565b60405180910390fd5b7f150b7a023d4804d13e8c85fb27262cb750cf6ba9f9dd3bb30d90f482ceeb4b1f9050949350505050565b6060600061058c60016113d7565b905060008060005b83811015610635573373ffffffffffffffffffffffffffffffffffffffff16600560006001846105c49190611b37565b815260200190815260200160002060040160009054906101000a900473ffffffffffffffffffffffffffffffffffffffff1673ffffffffffffffffffffffffffffffffffffffff1614156106225760018361061f9190611b37565b92505b808061062d90611cba565b915050610594565b5060008267ffffffffffffffff811115610678577f4e487b7100000000000000000000000000000000000000000000000000000000600052604160045260246000fd5b6040519080825280602002602001820160405280156106b157816020015b61069e6113fb565b8152602001906001900390816106965790505b50905060005b84811015610923573373ffffffffffffffffffffffffffffffffffffffff16600560006001846106e79190611b37565b815260200190815260200160002060040160009054906101000a900473ffffffffffffffffffffffffffffffffffffffff1673ffffffffffffffffffffffffffffffffffffffff161415610910576000600560006001846107489190611b37565b81526020019081526020016000206000015490506000600560008381526020019081526020016000206040518060e0016040529081600082015481526020016001820160009054906101000a900473ffffffffffffffffffffffffffffffffffffffff1673ffffffffffffffffffffffffffffffffffffffff1673ffffffffffffffffffffffffffffffffffffffff168152602001600282015481526020016003820160009054906101000a900473ffffffffffffffffffffffffffffffffffffffff1673ffffffffffffffffffffffffffffffffffffffff1673ffffffffffffffffffffffffffffffffffffffff1681526020016004820160009054906101000a900473ffffffffffffffffffffffffffffffffffffffff1673ffffffffffffffffffffffffffffffffffffffff1673ffffffffffffffffffffffffffffffffffffffff168152602001600582015481526020016006820160009054906101000a900460ff1615151515815250509050808486815181106108f3577f4e487b7100000000000000000000000000000000000000000000000000000000600052603260045260246000fd5b602002602001018190525060018561090b9190611b37565b945050505b808061091b90611cba565b9150506106b7565b508094505050505090565b60026000541415610974576040517f08c379a000000000000000000000000000000000000000000000000000000000815260040161096b90611a00565b60405180910390fd5b6002600081905550600081116109bf576040517f08c379a00000000000000000000000000000000000000000000000000000000081526004016109b690611a20565b60405180910390fd5b6004543414610a03576040517f08c379a00000000000000000000000000000000000000000000000000000000081526004016109fa906119a0565b60405180910390fd5b610a0d60016113e5565b6000610a1960016113d7565b90506040518060e001604052808281526020018573ffffffffffffffffffffffffffffffffffffffff1681526020018481526020013373ffffffffffffffffffffffffffffffffffffffff168152602001600073ffffffffffffffffffffffffffffffffffffffff16815260200183815260200160001515815250600560008381526020019081526020016000206000820151816000015560208201518160010160006101000a81548173ffffffffffffffffffffffffffffffffffffffff021916908373ffffffffffffffffffffffffffffffffffffffff1602179055506040820151816002015560608201518160030160006101000a81548173ffffffffffffffffffffffffffffffffffffffff021916908373ffffffffffffffffffffffffffffffffffffffff16021790555060808201518160040160006101000a81548173ffffffffffffffffffffffffffffffffffffffff021916908373ffffffffffffffffffffffffffffffffffffffff16021790555060a0820151816005015560c08201518160060160006101000a81548160ff0219169083151502179055509050508373ffffffffffffffffffffffffffffffffffffffff1663b88d4fde3330866040518060400160405280600781526020017f73756363657373000000000000000000000000000000000000000000000000008152506040518563ffffffff1660e01b8152600401610c319493929190611917565b600060405180830381600087803b158015610c4b57600080fd5b505af1158015610c5f573d6000803e3d6000fd5b50505050828473ffffffffffffffffffffffffffffffffffffffff16827f045dfa01dcba2b36aba1d3dc4a874f4b0c5d2fbeb8d2c4b34a7d88c8d8f929d1336000876000604051610cb394939291906118d2565b60405180910390a4506001600081905550505050565b60026000541415610d0f576040517f08c379a0000000000000000000000000000000000000000000000000000000008152600401610d0690611a00565b60405180910390fd5b6002600081905550600060056000838152602001908152602001600020600501549050600060056000848152602001908152602001600020600201549050813414610d8f576040517f08c379a0000000000000000000000000000000000000000000000000000000008152600401610d86906119c0565b60405180910390fd5b6005600084815260200190815260200160002060030160009054906101000a900473ffffffffffffffffffffffffffffffffffffffff1673ffffffffffffffffffffffffffffffffffffffff163373ffffffffffffffffffffffffffffffffffffffff161415610e34576040517f08c379a0000000000000000000000000000000000000000000000000000000008152600401610e2b906119e0565b60405180910390fd5b6005600084815260200190815260200160002060030160009054906101000a900473ffffffffffffffffffffffffffffffffffffffff1673ffffffffffffffffffffffffffffffffffffffff166108fc349081150290604051600060405180830381858888f19350505050158015610eb0573d6000803e3d6000fd5b508373ffffffffffffffffffffffffffffffffffffffff166342842e0e3033846040518463ffffffff1660e01b8152600401610eee9392919061189b565b600060405180830381600087803b158015610f0857600080fd5b505af1158015610f1c573d6000803e3d6000fd5b50505050336005600085815260200190815260200160002060040160006101000a81548173ffffffffffffffffffffffffffffffffffffffff021916908373ffffffffffffffffffffffffffffffffffffffff16021790555060016005600085815260200190815260200160002060060160006101000a81548160ff021916908315150217905550610fae60026113e5565b600360009054906101000a900473ffffffffffffffffffffffffffffffffffffffff1673ffffffffffffffffffffffffffffffffffffffff166108fc6004549081150290604051600060405180830381858888f19350505050158015611018573d6000803e3d6000fd5b50505060016000819055505050565b6060600061103560016113d7565b905060008060005b838110156110de573373ffffffffffffffffffffffffffffffffffffffff166005600060018461106d9190611b37565b815260200190815260200160002060030160009054906101000a900473ffffffffffffffffffffffffffffffffffffffff1673ffffffffffffffffffffffffffffffffffffffff1614156110cb576001836110c89190611b37565b92505b80806110d690611cba565b91505061103d565b5060008267ffffffffffffffff811115611121577f4e487b7100000000000000000000000000000000000000000000000000000000600052604160045260246000fd5b60405190808252806020026020018201604052801561115a57816020015b6111476113fb565b81526020019060019003908161113f5790505b50905060005b848110156113cc573373ffffffffffffffffffffffffffffffffffffffff16600560006001846111909190611b37565b815260200190815260200160002060030160009054906101000a900473ffffffffffffffffffffffffffffffffffffffff1673ffffffffffffffffffffffffffffffffffffffff1614156113b9576000600560006001846111f19190611b37565b81526020019081526020016000206000015490506000600560008381526020019081526020016000206040518060e0016040529081600082015481526020016001820160009054906101000a900473ffffffffffffffffffffffffffffffffffffffff1673ffffffffffffffffffffffffffffffffffffffff1673ffffffffffffffffffffffffffffffffffffffff168152602001600282015481526020016003820160009054906101000a900473ffffffffffffffffffffffffffffffffffffffff1673ffffffffffffffffffffffffffffffffffffffff1673ffffffffffffffffffffffffffffffffffffffff1681526020016004820160009054906101000a900473ffffffffffffffffffffffffffffffffffffffff1673ffffffffffffffffffffffffffffffffffffffff1673ffffffffffffffffffffffffffffffffffffffff168152602001600582015481526020016006820160009054906101000a900460ff16151515158152505090508084868151811061139c577f4e487b7100000000000000000000000000000000000000000000000000000000600052603260045260246000fd5b60200260200101819052506001856113b49190611b37565b945050505b80806113c490611cba565b915050611160565b508094505050505090565b600081600001549050919050565b6001816000016000828254019250508190555050565b6040518060e0016040528060008152602001600073ffffffffffffffffffffffffffffffffffffffff16815260200160008152602001600073ffffffffffffffffffffffffffffffffffffffff168152602001600073ffffffffffffffffffffffffffffffffffffffff168152602001600081526020016000151581525090565b600061148f61148a84611aa0565b611a7b565b9050828152602081018484840111156114a757600080fd5b6114b2848285611c47565b509392505050565b6000813590506114c981611eda565b92915050565b600082601f8301126114e057600080fd5b81356114f084826020860161147c565b91505092915050565b60008135905061150881611ef1565b92915050565b6000806000806080858703121561152457600080fd5b6000611532878288016114ba565b9450506020611543878288016114ba565b9350506040611554878288016114f9565b925050606085013567ffffffffffffffff81111561157157600080fd5b61157d878288016114cf565b91505092959194509250565b6000806040838503121561159c57600080fd5b60006115aa858286016114ba565b92505060206115bb858286016114f9565b9150509250929050565b6000806000606084860312156115da57600080fd5b60006115e8868287016114ba565b93505060206115f9868287016114f9565b925050604061160a868287016114f9565b9150509250925092565b600061162083836117ef565b60e08301905092915050565b61163581611bd3565b82525050565b61164481611bc1565b82525050565b61165381611bc1565b82525050565b600061166482611ae1565b61166e8185611b04565b935061167983611ad1565b8060005b838110156116aa5781516116918882611614565b975061169c83611af7565b92505060018101905061167d565b5085935050505092915050565b6116c081611be5565b82525050565b6116cf81611be5565b82525050565b6116de81611bf1565b82525050565b60006116ef82611aec565b6116f98185611b15565b9350611709818560208601611c56565b61171281611d61565b840191505092915050565b600061172a602583611b26565b915061173582611d72565b604082019050919050565b600061174d604083611b26565b915061175882611dc1565b604082019050919050565b6000611770602a83611b26565b915061177b82611e10565b604082019050919050565b6000611793601f83611b26565b915061179e82611e5f565b602082019050919050565b60006117b6601c83611b26565b91506117c182611e88565b602082019050919050565b60006117d9601183611b26565b91506117e482611eb1565b602082019050919050565b60e082016000820151611805600085018261187d565b506020820151611818602085018261163b565b50604082015161182b604085018261187d565b50606082015161183e606085018261162c565b506080820151611851608085018261162c565b5060a082015161186460a085018261187d565b5060c082015161187760c08501826116b7565b50505050565b61188681611c3d565b82525050565b61189581611c3d565b82525050565b60006060820190506118b0600083018661164a565b6118bd602083018561164a565b6118ca604083018461188c565b949350505050565b60006080820190506118e7600083018761164a565b6118f4602083018661164a565b611901604083018561188c565b61190e60608301846116c6565b95945050505050565b600060808201905061192c600083018761164a565b611939602083018661164a565b611946604083018561188c565b818103606083015261195881846116e4565b905095945050505050565b6000602082019050818103600083015261197d8184611659565b905092915050565b600060208201905061199a60008301846116d5565b92915050565b600060208201905081810360008301526119b98161171d565b9050919050565b600060208201905081810360008301526119d981611740565b9050919050565b600060208201905081810360008301526119f981611763565b9050919050565b60006020820190508181036000830152611a1981611786565b9050919050565b60006020820190508181036000830152611a39816117a9565b9050919050565b60006020820190508181036000830152611a59816117cc565b9050919050565b6000602082019050611a75600083018461188c565b92915050565b6000611a85611a96565b9050611a918282611c89565b919050565b6000604051905090565b600067ffffffffffffffff821115611abb57611aba611d32565b5b611ac482611d61565b9050602081019050919050565b6000819050602082019050919050565b600081519050919050565b600081519050919050565b6000602082019050919050565b600082825260208201905092915050565b600082825260208201905092915050565b600082825260208201905092915050565b6000611b4282611c3d565b9150611b4d83611c3d565b9250827fffffffffffffffffffffffffffffffffffffffffffffffffffffffffffffffff03821115611b8257611b81611d03565b5b828201905092915050565b6000611b9882611c3d565b9150611ba383611c3d565b925082821015611bb657611bb5611d03565b5b828203905092915050565b6000611bcc82611c1d565b9050919050565b6000611bde82611c1d565b9050919050565b60008115159050919050565b60007fffffffff0000000000000000000000000000000000000000000000000000000082169050919050565b600073ffffffffffffffffffffffffffffffffffffffff82169050919050565b6000819050919050565b82818337600083830152505050565b60005b83811015611c74578082015181840152602081019050611c59565b83811115611c83576000848401525b50505050565b611c9282611d61565b810181811067ffffffffffffffff82111715611cb157611cb0611d32565b5b80604052505050565b6000611cc582611c3d565b91507fffffffffffffffffffffffffffffffffffffffffffffffffffffffffffffffff821415611cf857611cf7611d03565b5b600182019050919050565b7f4e487b7100000000000000000000000000000000000000000000000000000000600052601160045260246000fd5b7f4e487b7100000000000000000000000000000000000000000000000000000000600052604160045260246000fd5b6000601f19601f8301169050919050565b7f5072696365206d75737420626520657175616c20746f206c697374696e67207060008201527f7269636521000000000000000000000000000000000000000000000000000000602082015250565b7f506c65617365207375626d6974207468652061736b696e67207072696365206960008201527f6e206f7264657220746f20636f6d706c65746520746865207075726368617365602082015250565b7f796f757220617265207468652073656c6c657220616e6420796f752063616e2060008201527f6e6f742062757920697400000000000000000000000000000000000000000000602082015250565b7f5265656e7472616e637947756172643a207265656e7472616e742063616c6c00600082015250565b7f5072696365206d757374206265206174206c6561737420312077656900000000600082015250565b7f6974206973206e6f742073756363656564000000000000000000000000000000600082015250565b611ee381611bc1565b8114611eee57600080fd5b50565b611efa81611c3d565b8114611f0557600080fd5b5056fea26469706673582212200c395c8bef1644773f3374c52001f243ebee1ce3f8ff71ff9888fb230952e60764736f6c63430008040033",
  "linkReferences": {},
  "deployedLinkReferences": {}
}